:100000000C9434000C9451000C9451000C94B202E6
:100010000C9451000C9427030C9451000C94510043
:100020000C9451000C9451000C9451000C9451000C
:100030000C9451000C94D2000C9451000C9451007B
:100040000C9451000C9451000C9451000C945100EC
:100050000C9451000C9471010C9451000C945100BB
:100060000C9462000C94510011241FBECFEFD8E015
:10007000DEBFCDBF11E0A0E0B1E0EEE0F8E002C0ED
:1000800005900D92A230B107D9F711E0A2E0B1E0DE
:1000900001C01D92AB37B107E1F70E94C1030C9478
:1000A00005040C9400008093BA00ECEBF0E0808132
:1000B0008F7D80838081856480838FEF8093220190
:1000C000789408951F920F920FB60F9211248F9378
:1000D0009F93EF93FF938091B900887F803891F0D0
:1000E00020F4803609F045C006C0883A29F1883BE3
:1000F00009F03FC021C085EC8093BC008FEF809356
:1001000022013AC08091BB00909122019F3F41F4AF
:100110008F3118F4809322012CC01092220129C043
:10012000E0912201F0E0EF5BFE4F8083809122019D
:100130008F5F8093220116C0809122018F3F11F4BE
:1001400010922201E0912201F0E0ED5DFE4F8081EE
:100150008093BB00809122018F5F8093220188E011
:100160008A95F1F7809122018D3108F402C085E86B
:1001700001C085EC8093BC00FF91EF919F918F911E
:100180000F900FBE0F901F90189510928000E1E81D
:10019000F0E0808183608083EFE6F0E08081816021
:1001A000808308951F920F920FB60F9211242F9300
:1001B0003F934F935F936F937F938F939F93AF93EF
:1001C000BF93EF93FF9380910201909104018913F3
:1001D00019C090910501992391F00E94900280919D
:1001E00003018F5F8093030120E1829FC0011124EE
:1001F000909102019F70982B9093310103C081E090
:10020000809305018091040180930201FF91EF9199
:10021000BF91AF919F918F917F916F915F914F911E
:100220003F912F910F900FBE0F901F901895109235
:100230006301109265011092640184E1809366016C
:1002400010926801109267011092600110925F0194
:1002500081E08093690110926B0110926A0180E144
:1002600080936C0110926E0110926D0110926201E8
:100270001092610122E020936F011092710110929F
:1002800070011092720182E090E09093740180936B
:10029000730133E03093750110927701109276016B
:1002A0002093780190937A0180937901ECE7F0E054
:1002B000808180648083EAE7F0E0808180628083CF
:1002C000808188608083808186608083ABE7B0E036
:1002D0008C918C938081806880838081806480830E
:1002E00008951F920F920FB60F9211242F933F93F0
:1002F0004F935F938F939F93AF93BF93CF93DF936E
:10030000EF93FF938EEB809323018091780090917F
:100310007900E0917C00EF702E2F30E046E0E49F02
:10032000F0011124ED59FE4F44815581A381B0E0C5
:100330004230510509F456C0AB5DBE4F8C93A3818A
:10034000B0E0AA5DBE4F9C93853642E0940730F53D
:1003500044815581452B09F04DC0D901AA0FBB1F1F
:10036000A15ABE4F4D915C9111974F5F5F4F11960F
:100370005C934E93C381D0E04D915C911197CD5D1C
:10038000DE4F4883C381D0E04D915C91CC5DDE4F60
:10039000588341E050E0558344832CC0448155810B
:1003A0004130510539F5D901AA0FBB1FA15ABE4FE3
:1003B0004D915C9111974F5F5F4F11965C934E93F7
:1003C000C381D0E04D915C911197CD5DDE4F4883A4
:1003D000C381D0E04D915C91CC5DDE4F5883158296
:1003E000148208C0AD5DBE4F8C93E381F0E0EC5DFC
:1003F000FE4F908346E0429FF001439FF00D112491
:10040000ED59FE4F9283818380910001883C49F42D
:1004100080917C00807F80937C0080917C00826052
:1004200019C0893C70F080917C00807F80937C00B3
:1004300080917C00836080937C008FEF809300012B
:100440000BC090917C00907F90937C0090917C00F9
:100450008170892B80937C00809100018F5F809355
:100460000001FF91EF91DF91CF91BF91AF919F91EB
:100470008F915F914F913F912F910F900FBE0F90F1
:100480001F901895282F90E0019665E070E00E947B
:10049000DD038093040110920501213041F028F022
:1004A000223039F0233049F406C05A9808955C98F8
:1004B00008955E9808952E980895589808958AE0B2
:1004C00080930B018CE08093100188E080931501EC
:1004D00086E080931A0184E080931F018AB18565CC
:1004E0008AB98AB185758AB98BB185658BB9269A27
:1004F00027982E9AEBE6F0E0808180688083EDE615
:10050000F0E080818A6A8083E8E6F0E0808185609F
:10051000808385E38A95F1F7000084E00C94420221
:10052000282F90E0019665E070E00E94DD03809343
:10053000040110920501213049F028F0223049F0E1
:10054000233069F409C0589A5A9808955A9A5C98C9
:1005500008955C9A5E9808955E9A2E9808952E9A52
:10056000589808951F920F920FB60F9211242F934F
:100570003F934F935F936F937F938F939F93AF932B
:10058000BF93CF93EF93FF93C3B1809120018C274A
:1005900087FF49C0C7FF0AC0809184009091850001
:1005A00090931C0180931B012E9A3DC080910601FF
:1005B000811136C0809184009091850090931E0136
:1005C00080931D0120911D0130911E0180911B011E
:1005D00090911C012817390768F480911B019091B4
:1005E0001C0120911D0130911E01821B930B8095EF
:1005F00090950AC080911D0190911E0120911B01D0
:1006000030911C01821B930BE0911F01F0E0ED5D26
:10061000FE4F8083E0911F01F0E0EC5DFE4F908380
:1006200084E00E944202C0932001FF91EF91CF919C
:10063000BF91AF919F918F917F916F915F914F91FA
:100640003F912F910F900FBE0F901F9018951F9202
:100650000F920FB60F9211242F933F934F935F93F6
:100660006F937F938F939F93AF93BF93EF93FF937A
:1006700099B140912101492721E030E080E050E02C
:10068000E22FBA01022E02C0759567950A94E2F72F
:1006900060FF5EC0292F30E002C035952795EA95AE
:1006A000E2F720FF18C0209184003091850095E08A
:1006B000899FF0011124E95FFE4F318320839BB1B4
:1006C000880F21E030E0082E01C0220F0A94EAF7DB
:1006D000922B9BB945C090910601911136C0209193
:1006E000840030918500482F50E095E0899FF0010B
:1006F0001124E95FFE4F338322836281738120815D
:1007000031816217730748F42081318162817381DE
:10071000261B370B2095309506C0228133816081DE
:100720007181261B370B95E0949FF001959FF00D8A
:100730001124E95FFE4FA481B0E0AD5DBE4F2C9364
:10074000E481F0E0EC5DFE4F30830E94420208C07D
:10075000909321018F5F2E5F3F4F843009F090CF3F
:10076000FF91EF91BF91AF919F918F917F916F9189
:100770005F914F913F912F910F900FBE0F901F905F
:100780001895F89488E40E9453000E94C5000E94C6
:1007900017010E945F02789480E090E0FC01ED5D1B
:1007A000FE4F108201968E319105C1F78FE39CE9CF
:1007B0000197F1F700C00000F9CF97FB072E16F460
:1007C000009407D077FD09D00E94F10307FC05D003
:1007D0003EF4909581959F4F0895709561957F4F58
:1007E0000895AA1BBB1B51E107C0AA1FBB1FA61778
:1007F000B70710F0A61BB70B881F991F5A95A9F7CA
:0E08000080959095BC01CD010895F894FFCF2E
:02080E000100E7
:00000001FF
